:020000040000FA
:0400000007EF00F016
:0A000800378265ED09F045EF0CF0BA
:100D000000636F6F7264656E616461732066756500
:100D100072612064656C206C696D69746500436F55
:100D20006D616E646F206E6F207265636F6E6F63AE
:100D300069646F0050726F6365736F20636F6D70CD
:100D40006C657461646F00456E2070726F636573CB
:100D50006F0046616C7461204461746F0000000E86
:100D6000AE6E94809288000E806E000E816E000E32
:100D7000826E000E836E000E846ECCEC0CF033ECB1
:100D80000CF0BCEC0CF0C5EC0CF0EBEC0CF0E7EC70
:100D90000CF0E3EC0CF09690F4EF06F0010E076E09
:100DA0002C0E066E000E096E000E086E26EC0BF07F
:100DB0003550D8B4DEEF06F0E0EF06F0CEEF06F0E7
:100DC000ECEF06F0010E076E2C0E066E000E096E9B
:100DD000000E086EEAEC0AF03450D8B4F2EF06F0D8
:100DE000F4EF06F0E2EF06F03550D8B4FAEF06F073
:100DF000FCEF06F0D8EF06F03450D8B402EF07F05D
:100E000004EF07F0D8EF06F0F29E14EF07F054EC71
:100E10000CF062EC0CF080AA10EF07F012EF07F074
:100E200014EF07F0010E326E3250D8B41AEF07F00B
:100E30001CEF07F007EF07F0DBEF07F08490D8EC2A
:100E40000BF01E6E480E1E18D8B429EF07F02BEFDA
:100E500007F04CEF07F0470E1E18D8B432EF07F03A
:100E600034EF07F04CEF07F0540E1E18D8B43BEFE8
:100E700007F03DEF07F04CEF07F0530E1E18D8B403
:100E800044EF07F046EF07F04CEF07F097EC0CF05B
:100E9000DFEC0CF0EFEC0CF0480E1E18D8A453EF6A
:100EA00007F055EF07F080EF07F0DFEC0CF07DEC7A
:100EB0000CF0DBEC0CF0849027C006F028C007F0A3
:100EC000000E096E000E086E26EC0BF006C027F02F
:100ED00007C028F025C006F026C007F0000E096EF6
:100EE000000E086EEAEC0AF006C025F007C026F0F6
:100EF000D7EC0CF070EC0CF0AC9AAB98AC8AAB88E9
:100F0000470E1E18D8A487EF07F089EF07F096EF79
:100F100007F0DFEC0CF08490010E336E000E2C6EA7
:100F2000000E2B6E000E2A6E000E296E540E1E1837
:100F3000D8A49DEF07F09FEF07F0C3EF07F0DFECB9
:100F40000CF07DEC0CF0DBEC0CF08490410E0E6E9E
:100F5000EE0EE82EFED70E2EFCD700D08480030EB6
:100F60000F6E8A0E0E6E560EE82EFED70E2EFCD792
:100F70000F2EFAD78490D7EC0CF070EC0CF0AC9AF2
:100F8000AB98AC8AAB88530E1E18D8A4CAEF07F0F2
:100F9000CCEF07F0D9EF07F0DFEC0CF08480010E06
:100FA000336E000E2C6E000E2B6E000E2A6E000E9D
:100FB000296E000EAE6E3350D8B4E1EF07F0E3EFC8
:100FC00007F01EEF07F04FEF09F01F0E106E000E36
:100FD000116E10C00AF011C00BF0060E0C6E08EC7A
:100FE0000CF0D00E1F24066E076AFF0E0722000EBB
:100FF000096E640E086E20EC0CF006C012F007C0FB
:1010000013F0D00E2024066E076AFF0E0722000E92
:10101000096E0A0E086E20EC0CF006C014F007C032
:1010200015F0D00E2124166E176AFF0E17221450E9
:1010300012240E6E155013200F6E16500E242F6EB4
:1010400017500F20306ED00E2224066E076AFF0E56
:101050000722000E096E640E086E20EC0CF006C02C
:1010600018F007C019F0D00E2324066E076AFF0E91
:101070000722000E096E0A0E086E20EC0CF006C066
:101080001AF007C01BF0D00E24241C6E1D6AFF0E40
:101090001D221A5018240E6E1B5019200F6E1C5062
:1010A0000E242D6E1D500F202E6E1F50D8B45BEFF6
:1010B00008F05DEF08F065EF08F02250D8A463EF68
:1010C00008F065EF08F069EF08F08AEC0CF0010E0B
:1010D000316E2050D8B46FEF08F071EF08F079EF5F
:1010E00008F02350D8A477EF08F079EF08F07DEFEF
:1010F00008F08AEC0CF0010E316E2150D8B483EF69
:1011000008F085EF08F08DEF08F02450D8A48BEF9D
:1011100008F08DEF08F091EF08F08AEC0CF0010E6A
:10112000316E3150D8A497EF08F099EF08F04BEFEB
:1011300009F02D0E2F5C010E3058D8B0A2EF08F048
:10114000A4EF08F0AFEF08F02D0E2D5C010E2E5825
:10115000D8A0ADEF08F0AFEF08F0B3EF08F0A4ECC3
:101160000CF0EFEC0CF02D0E2F5C010E3058D8B0C7
:10117000BCEF08F0BEEF08F04BEF09F02D0E2D5C30
:10118000010E2E58D8B0C7EF08F0C9EF08F04BEFAA
:1011900009F0DFEC0CF07DEC0CF0DBEC0CF02F50E8
:1011A000275C30502858D8B0D8EF08F0DAEF08F0B4
:1011B000EAEF08F0AC9AAB9827C006F028C007F019
:1011C0002FC008F030C009F09DEC0BF006C027F0EE
:1011D00007C028F027502F5C28503058D8B0F3EFC4
:1011E00008F0F5EF08F005EF09F0AC9AAB9827C0CE
:1011F00006F028C007F02FC008F030C009F026EC38
:101200000BF006C027F007C028F02D50255C2E50AB
:101210002658D8B00EEF09F010EF09F020EF09F0D2
:10122000AC9AAB9825C006F026C007F02DC008F098
:101230002EC009F062EC0BF006C025F007C026F0C6
:1012400025502D5C26502E58D8B029EF09F02BEFF1
:1012500009F03BEF09F0AC9AAB9825C006F026C028
:1012600007F02DC008F02EC009F0EAEC0AF006C025
:1012700025F007C026F0AC8AAB88D7EC0CF070ECF8
:101280000CF0000E336E000E2C6E010E2B6E000E55
:101290002A6E010E296E000E316E000EAE6E2B50BE
:1012A0002C10D8A456EF09F058EF09F0DBEF07F047
:1012B00029502A10D8B45FEF09F061EF09F0E5EF8B
:1012C00007F0DBEF07F007EF00F00600F2A26BEF8C
:1012D00009F06DEF09F084EF09F027C001F028C094
:1012E00002F0000E046E000E036E32EC0AF025C010
:1012F00001F026C002F0000E046E000E036EF4EC46
:1013000009F0F292F090F092F0A089EF09F08BEFE3
:1013100009F09AEF09F0000E026E000E016E000E49
:10132000046E140E036EADEC0AF0010E356EF292EF
:10133000F090F092F0A29FEF09F0A1EF09F0B0EF6A
:1013400009F0000E026E000E016E000E046E0A0E11
:10135000036E70EC0AF0010E346EF292F090F0928F
:1013600037921100000E0B6E0B500724096E000E11
:1013700008200A6E09C0F6FF0AC0F7FF1F0E08001A
:10138000F564C5EF09F0C7EF09F0F3EF09F00B5072
:101390000724096E000E08200A6E09C0F6FF0AC075
:1013A000F7FF7A0E0800F564D8EF09F0DAEF09F0DC
:1013B000DCEF09F0F3EF09F00B500724096E000E83
:1013C00008200A6E09C0F6FF0AC0F7FF0800F550B2
:1013D000B1EC0CF00B2A0B28D8A4F1EF09F0F3EFD5
:1013E00009F0B4EF09F012000150035C02500458F8
:1013F000D8B0FDEF09F0FFEF09F031EF0AF0839468
:10140000839625EF0AF0000E056E040E05640BEFBF
:101410000AF00DEF0AF00FEF0AF022EF0AF08284D3
:10142000C80E00D0E82EFDD78294C80E00D0E82E5A
:10143000FDD7052A040E056420EF0AF022EF0AF01A
:101440000FEF0AF00106D8A002060150035C02501B
:101450000458D8A02EEF0AF030EF0AF003EF0AF09C
:10146000838412000150035C02500458D8B03BEF53
:101470000AF03DEF0AF06FEF0AF08390839263EF7A
:101480000AF0000E056E040E056449EF0AF04BEFFA
:101490000AF04DEF0AF060EF0AF08282C80E00D029
:1014A000E82EFDD78292C80E00D0E82EFDD7052A7F
:1014B000040E05645EEF0AF060EF0AF04DEF0AF0EB
:1014C0000106D8A002060150035C02500458D8A0BF
:1014D0006CEF0AF06EEF0AF041EF0AF08380120021
:1014E0000350015C04500258D8B079EF0AF07BEF4A
:1014F0000AF0ACEF0AF083948386A0EF0AF0000EA6
:10150000056E040E056487EF0AF089EF0AF08BEF91
:101510000AF09EEF0AF08284C80E00D0E82EFDD7B4
:101520008294C80E00D0E82EFDD7052A040E05646B
:101530009CEF0AF09EEF0AF08BEF0AF0014A022AB4
:101540000350015C04500258D8A0A9EF0AF0ABEF99
:101550000AF07FEF0AF0838412000350015C04500C
:101560000258D8B0B6EF0AF0B8EF0AF0E9EF0AF087
:1015700083908382DDEF0AF0000E056E040E056491
:10158000C4EF0AF0C6EF0AF0C8EF0AF0DBEF0AF08A
:101590008282C80E00D0E82EFDD78292C80E00D0FD
:1015A000E82EFDD7052A040E0564D9EF0AF0DBEF1B
:1015B0000AF0C8EF0AF0014A022A0350015C045005
:1015C0000258D8A0E6EF0AF0E8EF0AF0BCEF0AF004
:1015D000838012000650085C07500958D8B0F3EF1A
:1015E0000AF0F5EF0AF025EF0BF08394839611EFE4
:1015F0000BF0000E0A6E8284C80E00D0E82EFDD7D4
:101600008294C80E00D0E82EFDD70A2A040E0A6480
:101610000CEF0BF00EEF0BF0FBEF0AF00606D8A074
:1016200007060650085C07500958D8A01AEF0BF0BF
:101630001CEF0BF0F9EF0AF0838408C006F009C034
:1016400007F006C006F007C007F012000650085C5D
:1016500007500958D8B02FEF0BF031EF0BF061EFC6
:101660000BF0839083924DEF0BF0000E0A6E828296
:10167000C80E00D0E82EFDD78292C80E00D0E82E0A
:10168000FDD70A2A040E0A6448EF0BF04AEF0BF06C
:1016900037EF0BF00606D8A007060650085C075087
:1016A0000958D8A056EF0BF058EF0BF035EF0BF0C0
:1016B000838008C006F009C007F006C006F007C026
:1016C00007F012000850065C09500758D8B06BEFBD
:1016D0000BF06DEF0BF09CEF0BF08394838688EF9B
:1016E0000BF0000E0A6E8284C80E00D0E82EFDD7E3
:1016F0008294C80E00D0E82EFDD70A2A040E0A6490
:1017000084EF0BF086EF0BF073EF0BF0064A072A1D
:101710000850065C09500758D8A091EF0BF093EFE2
:101720000BF071EF0BF0838408C006F009C007F0DE
:1017300006C006F007C007F012000850065C09500A
:101740000758D8B0A6EF0BF0A8EF0BF0D7EF0BF0CF
:1017500083908382C3EF0BF0000E0A6E8282C80E64
:1017600000D0E82EFDD78292C80E00D0E82EFDD71B
:101770000A2A040E0A64BFEF0BF0C1EF0BF0AEEFC4
:101780000BF0064A072A0850065C09500758D8A0F3
:10179000CCEF0BF0CEEF0BF0ACEF0BF0838008C07A
:1017A00006F009C007F006C006F007C007F01200F7
:1017B000000E066E000E076E000E086E000E096E1B
:1017C000FBEF0BF0B00E06180BE1710E071808E1E5
:1017D0000B0E08180910D8A4F0EF0BF0F2EF0BF085
:1017E000F5EF0BF0000E07EF0CF0010E0626000ED1
:1017F0000722082209229EAA00EF0CF002EF0CF04B
:10180000E2EF0BF0AECF36F0000EAE6E36501200A7
:10181000000E0D6E16EF0CF00D500A24D96E000E5E
:101820000B20DA6ED8EC0BF0DF6E0D2A0C500D5C3D
:10183000D8A01DEF0CF01FEF0CF00CEF0CF0120015
:1018400006500802F3CF0AF0F4CF0BF0065009025D
:10185000F3500B2607500802F3500B260AC006F07F
:101860000BC007F01200938093829384D09EF28E77
:10187000F29CF288F292F18CF18AF188F08EF08C71
:10188000F088F086F092F090120000EE25F0120E33
:10189000EE6AE806FDE137903792000EF86E0D0E05
:1018A000F76E0001AFEF06F058EF0CF0D3EC0CF040
:1018B00082B85DEF0CF05FEF0CF056EF0CF0F3EC3C
:1018C0000CF0120066EF0CF0F7EC0CF082BA6BEF44
:1018D0000CF06DEF0CF064EF0CF0F3EC0CF0120078
:1018E0000A0EB1EC0CF0340E076E0D0E086EB2EC61
:1018F00009F00D0EB1EC0CF012000A0EB1EC0CF078
:10190000470E076E0D0E086EB2EC09F00D0EB1EC2D
:101910000CF012000A0EB1EC0CF0520E076E0D0E18
:10192000086EB2EC09F00D0EB1EC0CF012000A0ECC
:10193000B1EC0CF01E0E076E0D0E086EB2EC09F045
:101940000D0EB1EC0CF012000A0EB1EC0CF0010E11
:10195000076E0D0E086EB2EC09F00D0EB1EC0CF036
:101960001200066EACA2B7EF0CF0B9EF0CF0B2EFBC
:101970000CF006C0ADFF1200948E949C260EAC6E47
:10198000900EAB6E190EAF6E1200949295929590D8
:101990009494959695941200600ED36EB468B59E9B
:1019A0000F0EC16E12008C888C8A8C9C12008A9A51
:1019B0008A8C8A9E12008A9A8A9C8A8E12008A9A3F
:1019C0008A9C8A9E1200939A939C939E12009598EB
:1019D000959A959C12009488948A928A12008A8A19
:1019E0008A9C8A9E12008C988C9C8C9A12008C88FF
:0619F0008C8C8C9A1200A1
:020000040020DA
:08000000FFFFFFFFFFFFFFFF00
:020000040030CA
:0E000000FF081F1EFF8081FF0FC00FE00F40A2
:00000001FF
