:020000040000FA
:0400000007EF00F016
:0A000800378263ED09F043EF0CF0BE
:100D000000636F6F7264656E616461732066756500
:100D100072612064656C206C696D69746500436F55
:100D20006D616E646F206E6F207265636F6E6F63AE
:100D300069646F0050726F6365736F20636F6D70CD
:100D40006C657461646F00456E2070726F636573CB
:100D50006F0046616C7461204461746F0000000E86
:100D6000AE6E94809288000E806E000E816E000E32
:100D7000826E000E836E000E846ECAEC0CF031ECB5
:100D80000CF0BAEC0CF0C3EC0CF0E9EC0CF0E5EC78
:100D90000CF0E1EC0CF09690F4EF06F0010E076E0B
:100DA0002C0E066E000E096E000E086E24EC0BF081
:100DB0003550D8B4DEEF06F0E0EF06F0CEEF06F0E7
:100DC000ECEF06F0010E076E2C0E066E000E096E9B
:100DD000000E086EE8EC0AF03450D8B4F2EF06F0DA
:100DE000F4EF06F0E2EF06F03550D8B4FAEF06F073
:100DF000FCEF06F0D8EF06F03450D8B402EF07F05D
:100E000004EF07F0D8EF06F013EF07F052EC0CF008
:100E100060EC0CF080AA0FEF07F011EF07F013EF72
:100E200007F0010E326E3250D8B419EF07F01BEF05
:100E300007F006EF07F0D9EF07F0D6EC0BF01E6EC7
:100E4000480E1E18D8B427EF07F029EF07F04AEF35
:100E500007F0470E1E18D8B430EF07F032EF07F056
:100E60004AEF07F0540E1E18D8B439EF07F03BEFE5
:100E700007F04AEF07F0530E1E18D8B442EF07F000
:100E800044EF07F04AEF07F095EC0CF0DDEC0CF0C6
:100E9000EDEC0CF0480E1E18D8A451EF07F053EFFC
:100EA00007F07EEF07F0DDEC0CF07BEC0CF0D9ECFA
:100EB0000CF0849027C006F028C007F0000E096EE1
:100EC000000E086E24EC0BF006C027F007C028F0D7
:100ED00025C006F026C007F0000E096E000E086E51
:100EE000E8EC0AF006C025F007C026F0D5EC0CF0BF
:100EF0006EEC0CF0AC9AAB98AC8AAB88470E1E181F
:100F0000D8A485EF07F087EF07F094EF07F0DDEC4A
:100F10000CF08490010E336E000E2C6E000E2B6EC2
:100F2000000E2A6E000E296E540E1E18D8A49BEFD8
:100F300007F09DEF07F0C1EF07F0DDEC0CF07BEC64
:100F40000CF0D9EC0CF08490410E0E6EEE0EE82EF3
:100F5000FED70E2EFCD700D08480030E0F6E8A0EB3
:100F60000E6E560EE82EFED70E2EFCD70F2EFAD799
:100F70008490D5EC0CF06EEC0CF0AC9AAB98AC8A8B
:100F8000AB88530E1E18D8A4C8EF07F0CAEF07F0BD
:100F9000D7EF07F0DDEC0CF08480010E336E000E0D
:100FA0002C6E000E2B6E000E2A6E000E296E000EA7
:100FB000AE6E3350D8B4DFEF07F0E1EF07F01DEF6E
:100FC00007F04DEF09F01F0E106E000E116E10C0ED
:100FD0000AF011C00BF0060E0C6E06EC0CF0D00EF1
:100FE0001F24066E076AFF0E0722000E096E640EAC
:100FF000086E1EEC0CF006C012F007C013F0D00E05
:101000002024066E076AFF0E0722000E096E0A0EE4
:10101000086E1EEC0CF006C014F007C015F0D00EE0
:101020002124166E176AFF0E1722145012240E6E1A
:10103000155013200F6E16500E242F6E17500F20D0
:10104000306ED00E2224066E076AFF0E0722000EB5
:10105000096E640E086E1EEC0CF006C018F007C096
:1010600019F0D00E2324066E076AFF0E0722000E29
:10107000096E0A0E086E1EEC0CF006C01AF007C0CE
:101080001BF0D00E24241C6E1D6AFF0E1D221A5068
:1010900018240E6E1B5019200F6E1C500E242D6E3E
:1010A0001D500F202E6E1F50D8B459EF08F05BEF83
:1010B00008F063EF08F02250D8A461EF08F063EF66
:1010C00008F067EF08F088EC0CF0010E316E20504C
:1010D000D8B46DEF08F06FEF08F077EF08F0235009
:1010E000D8A475EF08F077EF08F07BEF08F088ECF4
:1010F0000CF0010E316E2150D8B481EF08F083EF6F
:1011000008F08BEF08F02450D8A489EF08F08BEF9B
:1011100008F08FEF08F088EC0CF0010E316E3150C2
:10112000D8A495EF08F097EF08F049EF09F02D0EDD
:101130002F5C010E3058D8B0A0EF08F0A2EF08F0F5
:10114000ADEF08F02D0E2D5C010E2E58D8A0ABEFA0
:1011500008F0ADEF08F0B1EF08F0A2EC0CF0EDEC08
:101160000CF02D0E2F5C010E3058D8B0BAEF08F0FD
:10117000BCEF08F049EF09F02D0E2D5C010E2E5842
:10118000D8B0C5EF08F0C7EF08F049EF09F0DDEC83
:101190000CF07BEC0CF0D9EC0CF02F50275C3050AD
:1011A0002858D8B0D6EF08F0D8EF08F0E8EF08F0EC
:1011B000AC9AAB9827C006F028C007F02FC008F003
:1011C00030C009F09BEC0BF006C027F007C028F0F8
:1011D00027502F5C28503058D8B0F1EF08F0F3EFCB
:1011E00008F003EF09F0AC9AAB9827C006F028C0CE
:1011F00007F02FC008F030C009F024EC0BF006C057
:1012000027F007C028F02D50255C2E502658D8B066
:101210000CEF09F00EEF09F01EEF09F0AC9AAB9855
:1012200025C006F026C007F02DC008F02EC009F03A
:1012300060EC0BF006C025F007C026F025502D5CB1
:1012400026502E58D8B027EF09F029EF09F039EFD2
:1012500009F0AC9AAB9825C006F026C007F02DC067
:1012600008F02EC009F0E8EC0AF006C025F007C02F
:1012700026F0AC8AAB88D5EC0CF06EEC0CF0000ECE
:10128000336E000E2C6E010E2B6E000E2A6E010EB8
:10129000296E000E316E000EAE6E2B502C10D8A4AD
:1012A00054EF09F056EF09F0D9EF07F029502A1052
:1012B000D8B45DEF09F05FEF09F0E3EF07F0D9EF85
:1012C00007F007EF00F00600F2A269EF09F06BEFFC
:1012D00009F082EF09F027C001F028C002F0000EEB
:1012E000046E000E036E30EC0AF025C001F026C03B
:1012F00002F0000E046E000E036EF2EC09F0F292A2
:10130000F090F092F0A087EF09F089EF09F098EFE4
:1013100009F0000E026E000E016E000E046E0A0E41
:10132000036EABEC0AF0010E356EF292F090F09283
:10133000F0A29DEF09F09FEF09F0AEEF09F0000E6B
:10134000026E000E016E000E046E0A0E036E6EEC4D
:101350000AF0010E346EF292F090F0923792110082
:10136000000E0B6E0B500724096E000E08200A6E4B
:1013700009C0F6FF0AC0F7FF1F0E0800F564C3EFAF
:1013800009F0C5EF09F0F1EF09F00B500724096EE1
:10139000000E08200A6E09C0F6FF0AC0F7FF7A0E99
:1013A0000800F564D6EF09F0D8EF09F0DAEF09F09C
:1013B000F1EF09F00B500724096E000E08200A6EA9
:1013C00009C0F6FF0AC0F7FF0800F550AFEC0CF0BB
:1013D0000B2A0B28D8A4EFEF09F0F1EF09F0B2EFD8
:1013E00009F012000150035C02500458D8B0FBEF22
:1013F00009F0FDEF09F02FEF0AF08394839623EFB5
:101400000AF0000E056E040E056409EF0AF00BEFFA
:101410000AF00DEF0AF020EF0AF08284C80E00D027
:10142000E82EFDD78294C80E00D0E82EFDD7052AFD
:10143000040E05641EEF0AF020EF0AF00DEF0AF02B
:101440000106D8A002060150035C02500458D8A03F
:101450002CEF0AF02EEF0AF001EF0AF0838412005D
:101460000150035C02500458D8B039EF0AF03BEF4A
:101470000AF06DEF0AF08390839261EF0AF0000E9C
:10148000056E040E056447EF0AF049EF0AF04BEFD2
:101490000AF05EEF0AF08282C80E00D0E82EFDD777
:1014A0008292C80E00D0E82EFDD7052A040E0564EE
:1014B0005CEF0AF05EEF0AF04BEF0AF00106D8A0ED
:1014C00002060150035C02500458D8A06AEF0AF0EB
:1014D0006CEF0AF03FEF0AF0838012000350015CCA
:1014E00004500258D8B077EF0AF079EF0AF0AAEF6B
:1014F0000AF0839483869EEF0AF0000E056E040EB8
:10150000056485EF0AF087EF0AF089EF0AF09CEF97
:101510000AF08284C80E00D0E82EFDD78294C80E4F
:1015200000D0E82EFDD7052A040E05649AEF0AF0D4
:101530009CEF0AF089EF0AF0014A022A0350015C8D
:1015400004500258D8A0A7EF0AF0A9EF0AF07DEFE7
:101550000AF0838412000350015C04500258D8B092
:10156000B4EF0AF0B6EF0AF0E7EF0AF08390838257
:10157000DBEF0AF0000E056E040E0564C2EF0AF000
:10158000C4EF0AF0C6EF0AF0D9EF0AF08282C80E63
:1015900000D0E82EFDD78292C80E00D0E82EFDD7ED
:1015A000052A040E0564D7EF0AF0D9EF0AF0C6EF5A
:1015B0000AF0014A022A0350015C04500258D8A0E4
:1015C000E4EF0AF0E6EF0AF0BAEF0AF083801200C7
:1015D0000650085C07500958D8B0F1EF0AF0F3EF55
:1015E0000AF023EF0BF0839483960FEF0BF0000EBD
:1015F0000A6E8284C80E00D0E82EFDD78294C80EF1
:1016000000D0E82EFDD70A2A040E0A640AEF0BF078
:101610000CEF0BF0F9EF0AF00606D8A0070606500B
:10162000085C07500958D8A018EF0BF01AEF0BF020
:10163000F7EF0AF0838408C006F009C007F006C07F
:1016400006F007C007F012000650085C0750095862
:10165000D8B02DEF0BF02FEF0BF05FEF0BF0839076
:1016600083924BEF0BF0000E0A6E8282C80E00D000
:10167000E82EFDD78292C80E00D0E82EFDD70A2AA8
:10168000040E0A6446EF0BF048EF0BF035EF0BF059
:101690000606D8A007060650085C07500958D8A0CF
:1016A00054EF0BF056EF0BF033EF0BF0838008C0D4
:1016B00006F009C007F006C006F007C007F01200E8
:1016C0000850065C09500758D8B069EF0BF06BEF73
:1016D0000BF09AEF0BF08394838686EF0BF0000EED
:1016E0000A6E8284C80E00D0E82EFDD78294C80E00
:1016F00000D0E82EFDD70A2A040E0A6482EF0BF010
:1017000084EF0BF071EF0BF0064A072A0850065CD5
:1017100009500758D8A08FEF0BF091EF0BF06FEF47
:101720000BF0838408C006F009C007F006C006F07D
:1017300007C007F012000850065C09500758D8B0DF
:10174000A4EF0BF0A6EF0BF0D5EF0BF083908382A4
:10175000C1EF0BF0000E0A6E8282C80E00D0E82E98
:10176000FDD78292C80E00D0E82EFDD70A2A040EBB
:101770000A64BDEF0BF0BFEF0BF0ACEF0BF0064AC5
:10178000072A0850065C09500758D8A0CAEF0BF08A
:10179000CCEF0BF0AAEF0BF0838008C006F009C075
:1017A00007F006C006F007C007F01200000E066E34
:1017B000000E076E000E086E000E096EF9EF0BF0BA
:1017C000B00E06180BE1710E071808E10B0E081891
:1017D0000910D8A4EEEF0BF0F0EF0BF0F3EF0BF0E5
:1017E000000E05EF0CF0010E0626000E072208225F
:1017F00009229EAAFEEF0BF000EF0CF0E0EF0BF0D9
:10180000AECF36F0000EAE6E36501200000E0D6EEA
:1018100014EF0CF00D500A24D96E000E0B20DA6E76
:10182000D6EC0BF0DF6E0D2A0C500D5CD8A01BEF30
:101830000CF01DEF0CF00AEF0CF01200065008023D
:10184000F3CF0AF0F4CF0BF006500902F3500B2649
:1018500007500802F3500B260AC006F00BC007F031
:101860001200938093829384D09EF28EF29CF28831
:10187000F292F18CF18AF188F08EF08CF088F0868B
:10188000F092F090120000EE25F0120EEE6AE806DB
:10189000FDE137903792000EF86E0D0EF76E0001E5
:1018A000AFEF06F056EF0CF0D1EC0CF082B85BEF26
:1018B0000CF05DEF0CF054EF0CF0F1EC0CF01200BA
:1018C00064EF0CF0F5EC0CF082BA69EF0CF06BEF02
:1018D0000CF062EF0CF0F1EC0CF012000A0EAFEC21
:1018E0000CF0340E076E0D0E086EB0EC09F00D0E04
:1018F000AFEC0CF012000A0EAFEC0CF0470E076EC6
:101900000D0E086EB0EC09F00D0EAFEC0CF01200ED
:101910000A0EAFEC0CF0520E076E0D0E086EB0EC16
:1019200009F00D0EAFEC0CF012000A0EAFEC0CF04B
:101930001E0E076E0D0E086EB0EC09F00D0EAFEC2A
:101940000CF012000A0EAFEC0CF0010E076E0D0E3B
:10195000086EB0EC09F00D0EAFEC0CF01200066E44
:10196000ACA2B5EF0CF0B7EF0CF0B0EF0CF006C086
:10197000ADFF1200948E949C260EAC6E900EAB6E52
:10198000190EAF6E1200949295929590949495963C
:1019900095941200600ED36EB468B59E0F0EC16EA2
:1019A00012008C888C8A8C9C12008A9A8A8C8A9E5F
:1019B00012008A9A8A9C8A8E12008A9A8A9C8A9E2F
:1019C0001200939A939C939E12009598959A959CD9
:1019D00012009488948A928A12008A8A8A9C8A9E2B
:1019E00012008C988C9C8C9A12008C888C8C8C9A0F
:0219F0001200E3
:020000040020DA
:08000000FFFFFFFFFFFFFFFF00
:020000040030CA
:0E000000FF081F1EFF8081FF0FC00FE00F40A2
:00000001FF
